{
  "contractName": "SimpleStorage",
  "abi": [
    {
      "constant": true,
      "inputs": [],
      "name": "lotCount",
      "outputs": [
        {
          "name": "",
          "type": "uint256"
        }
      ],
      "payable": false,
      "stateMutability": "view",
      "type": "function"
    },
    {
      "constant": true,
      "inputs": [
        {
          "name": "",
          "type": "uint256"
        }
      ],
      "name": "lotDetails",
      "outputs": [
        {
          "name": "famerId",
          "type": "uint256"
        },
        {
          "name": "lotno",
          "type": "uint256"
        },
        {
          "name": "grade",
          "type": "string"
        },
        {
          "name": "mrp",
          "type": "uint256"
        },
        {
          "name": "testdate",
          "type": "string"
        },
        {
          "name": "expdate",
          "type": "string"
        }
      ],
      "payable": false,
      "stateMutability": "view",
      "type": "function"
    },
    {
      "constant": true,
      "inputs": [],
      "name": "tester",
      "outputs": [
        {
          "name": "",
          "type": "address"
        }
      ],
      "payable": false,
      "stateMutability": "view",
      "type": "function"
    },
    {
      "constant": true,
      "inputs": [],
      "name": "owner",
      "outputs": [
        {
          "name": "",
          "type": "address"
        }
      ],
      "payable": false,
      "stateMutability": "view",
      "type": "function"
    },
    {
      "constant": true,
      "inputs": [
        {
          "name": "",
          "type": "uint256"
        }
      ],
      "name": "farmerlotDetails",
      "outputs": [
        {
          "name": "farmerlotId",
          "type": "uint256"
        },
        {
          "name": "farmerId",
          "type": "uint256"
        },
        {
          "name": "lotId",
          "type": "uint256"
        },
        {
          "name": "priceSup",
          "type": "uint256"
        }
      ],
      "payable": false,
      "stateMutability": "view",
      "type": "function"
    },
    {
      "constant": true,
      "inputs": [
        {
          "name": "",
          "type": "uint256"
        }
      ],
      "name": "farmerDetails",
      "outputs": [
        {
          "name": "fname",
          "type": "string"
        },
        {
          "name": "loc",
          "type": "string"
        },
        {
          "name": "crop",
          "type": "string"
        },
        {
          "name": "contact",
          "type": "uint256"
        },
        {
          "name": "quantity",
          "type": "uint256"
        },
        {
          "name": "exprice",
          "type": "uint256"
        },
        {
          "name": "farmerId",
          "type": "uint256"
        }
      ],
      "payable": false,
      "stateMutability": "view",
      "type": "function"
    },
    {
      "constant": true,
      "inputs": [],
      "name": "farmerCount",
      "outputs": [
        {
          "name": "",
          "type": "uint256"
        }
      ],
      "payable": false,
      "stateMutability": "view",
      "type": "function"
    },
    {
      "constant": true,
      "inputs": [],
      "name": "farmerlotCount",
      "outputs": [
        {
          "name": "",
          "type": "uint256"
        }
      ],
      "payable": false,
      "stateMutability": "view",
      "type": "function"
    },
    {
      "inputs": [],
      "payable": false,
      "stateMutability": "nonpayable",
      "type": "constructor"
    },
    {
      "constant": false,
      "inputs": [
        {
          "name": "_fname",
          "type": "string"
        },
        {
          "name": "_loc",
          "type": "string"
        },
        {
          "name": "_crop",
          "type": "string"
        },
        {
          "name": "_contact",
          "type": "uint256"
        },
        {
          "name": "_quantity",
          "type": "uint256"
        },
        {
          "name": "_exprice",
          "type": "uint256"
        }
      ],
      "name": "addFarmer",
      "outputs": [],
      "payable": false,
      "stateMutability": "nonpayable",
      "type": "function"
    },
    {
      "constant": true,
      "inputs": [],
      "name": "getFarmerNumber",
      "outputs": [
        {
          "name": "",
          "type": "uint256"
        }
      ],
      "payable": false,
      "stateMutability": "view",
      "type": "function"
    },
    {
      "constant": true,
      "inputs": [],
      "name": "getOwner",
      "outputs": [
        {
          "name": "",
          "type": "address"
        }
      ],
      "payable": false,
      "stateMutability": "view",
      "type": "function"
    },
    {
      "constant": false,
      "inputs": [
        {
          "name": "_famerId",
          "type": "uint256"
        },
        {
          "name": "_ll",
          "type": "uint256"
        },
        {
          "name": "_g",
          "type": "string"
        },
        {
          "name": "_p",
          "type": "uint256"
        },
        {
          "name": "_tt",
          "type": "string"
        },
        {
          "name": "_e",
          "type": "string"
        }
      ],
      "name": "quality",
      "outputs": [],
      "payable": false,
      "stateMutability": "nonpayable",
      "type": "function"
    },
    {
      "constant": true,
      "inputs": [],
      "name": "getLotNumber",
      "outputs": [
        {
          "name": "",
          "type": "uint256"
        }
      ],
      "payable": false,
      "stateMutability": "view",
      "type": "function"
    },
    {
      "constant": false,
      "inputs": [
        {
          "name": "_farmerId",
          "type": "uint256"
        },
        {
          "name": "_lotId",
          "type": "uint256"
        },
        {
          "name": "_priceSup",
          "type": "uint256"
        }
      ],
      "name": "addFarmerLot",
      "outputs": [],
      "payable": false,
      "stateMutability": "nonpayable",
      "type": "function"
    },
    {
      "constant": true,
      "inputs": [],
      "name": "getFarmerLotNumber",
      "outputs": [
        {
          "name": "",
          "type": "uint256"
        }
      ],
      "payable": false,
      "stateMutability": "view",
      "type": "function"
    }
  ],
  "bytecode": "0x6060604052341561000f57600080fd5b336000806101000a81548173ffffffffffffffffffffffffffffffffffffffff021916908373ffffffffffffffffffffffffffffffffffffffff160217905550600060018190555060006003819055506000600281905550610e61806100766000396000f300606060405236156100d9576000357c0100000000000000000000000000000000000000000000000000000000900463ffffffff16806301b0352d146100de57806336a0feb114610107578063609dc07f146102055780636cda313d1461022e5780637ae169e91461026357806382c3a3211461028c5780638308abd41461046c578063893d20e8146104c15780638da5cb5b146105165780639acea9f11461056b578063a4f5e5e8146105b7578063bd45b3971461079e578063e6074ae0146107c7578063f5264da5146108c5578063f836c6db146108ee575b600080fd5b34156100e957600080fd5b6100f1610917565b6040518082815260200191505060405180910390f35b341561011257600080fd5b610203600480803590602001909190803590602001909190803590602001908201803590602001908080601f0160208091040260200160405190810160405280939291908181526020018383808284378201915050505050509190803590602001909190803590602001908201803590602001908080601f0160208091040260200160405190810160405280939291908181526020018383808284378201915050505050509190803590602001908201803590602001908080601f01602080910402602001604051908101604052809392919081815260200183838082843782019150505050505091905050610921565b005b341561021057600080fd5b610218610a01565b6040518082815260200191505060405180910390f35b341561023957600080fd5b6102616004808035906020019091908035906020019091908035906020019091905050610a0b565b005b341561026e57600080fd5b610276610a91565b6040518082815260200191505060405180910390f35b341561029757600080fd5b6102ad6004808035906020019091905050610a97565b604051808781526020018681526020018060200185815260200180602001806020018481038452888181546001816001161561010002031660029004815260200191508054600181600116156101000203166002900480156103505780601f1061032557610100808354040283529160200191610350565b820191906000526020600020905b81548152906001019060200180831161033357829003601f168201915b50508481038352868181546001816001161561010002031660029004815260200191508054600181600116156101000203166002900480156103d35780601f106103a8576101008083540402835291602001916103d3565b820191906000526020600020905b8154815290600101906020018083116103b657829003601f168201915b50508481038252858181546001816001161561010002031660029004815260200191508054600181600116156101000203166002900480156104565780601f1061042b57610100808354040283529160200191610456565b820191906000526020600020905b81548152906001019060200180831161043957829003601f168201915b5050995050505050505050505060405180910390f35b341561047757600080fd5b61047f610ad0565b604051808273ffffffffffffffffffffffffffffffffffffffff1673ffffffffffffffffffffffffffffffffffffffff16815260200191505060405180910390f35b34156104cc57600080fd5b6104d4610af6565b604051808273ffffffffffffffffffffffffffffffffffffffff1673ffffffffffffffffffffffffffffffffffffffff16815260200191505060405180910390f35b341561052157600080fd5b610529610b1f565b604051808273ffffffffffffffffffffffffffffffffffffffff1673ffffffffffffffffffffffffffffffffffffffff16815260200191505060405180910390f35b341561057657600080fd5b61058c6004808035906020019091905050610b44565b6040518085815260200184815260200183815260200182815260200194505050505060405180910390f35b34156105c257600080fd5b6105d86004808035906020019091905050610b74565b6040518080602001806020018060200188815260200187815260200186815260200185815260200184810384528b8181546001816001161561010002031660029004815260200191508054600181600116156101000203166002900480156106815780601f1061065657610100808354040283529160200191610681565b820191906000526020600020905b81548152906001019060200180831161066457829003601f168201915b505084810383528a8181546001816001161561010002031660029004815260200191508054600181600116156101000203166002900480156107045780601f106106d957610100808354040283529160200191610704565b820191906000526020600020905b8154815290600101906020018083116106e757829003601f168201915b50508481038252898181546001816001161561010002031660029004815260200191508054600181600116156101000203166002900480156107875780601f1061075c57610100808354040283529160200191610787565b820191906000526020600020905b81548152906001019060200180831161076a57829003601f168201915b50509a505050505050505050505060405180910390f35b34156107a957600080fd5b6107b1610bb3565b6040518082815260200191505060405180910390f35b34156107d257600080fd5b6108c3600480803590602001908201803590602001908080601f0160208091040260200160405190810160405280939291908181526020018383808284378201915050505050509190803590602001908201803590602001908080601f0160208091040260200160405190810160405280939291908181526020018383808284378201915050505050509190803590602001908201803590602001908080601f01602080910402602001604051908101604052809392919081815260200183838082843782019150505050505091908035906020019091908035906020019091908035906020019091905050610bb9565b005b34156108d057600080fd5b6108d8610caa565b6040518082815260200191505060405180910390f35b34156108f957600080fd5b610901610cb0565b6040518082815260200191505060405180910390f35b6000600354905090565b610929610cba565b60c060405190810160405280888152602001878152602001868152602001858152602001848152602001838152509050806006600060035481526020019081526020016000206000820151816000015560208201518160010155604082015181600201908051906020019061099f929190610d03565b506060820151816003015560808201518160040190805190602001906109c6929190610d03565b5060a08201518160050190805190602001906109e3929190610d03565b50905050600160036000828254019250508190555050505050505050565b6000600154905090565b610a13610d83565b60806040519081016040528060025481526020018581526020018481526020018381525090508060076000600254815260200190815260200160002060008201518160000155602082015181600101556040820151816002015560608201518160030155905050600160026000828254019250508190555050505050565b60035481565b60066020528060005260406000206000915090508060000154908060010154908060020190806003015490806004019080600501905086565b600560009054906101000a900473ffffffffffffffffffffffffffffffffffffffff1681565b60008060009054906101000a900473ffffffffffffffffffffffffffffffffffffffff16905090565b6000809054906101000a900473ffffffffffffffffffffffffffffffffffffffff1681565b60076020528060005260406000206000915090508060000154908060010154908060020154908060030154905084565b60046020528060005260406000206000915090508060000190806001019080600201908060030154908060040154908060050154908060060154905087565b60015481565b610bc1610dac565b60e0604051908101604052808881526020018781526020018681526020018581526020018481526020018381526020016001548152509050806004600060015481526020019081526020016000206000820151816000019080519060200190610c2b929190610d03565b506020820151816001019080519060200190610c48929190610d03565b506040820151816002019080519060200190610c65929190610d03565b50606082015181600301556080820151816004015560a0820151816005015560c082015181600601559050506001806000828254019250508190555050505050505050565b60025481565b6000600254905090565b60c0604051908101604052806000815260200160008152602001610cdc610dfc565b815260200160008152602001610cf0610dfc565b8152602001610cfd610dfc565b81525090565b828054600181600116156101000203166002900490600052602060002090601f016020900481019282601f10610d4457805160ff1916838001178555610d72565b82800160010185558215610d72579182015b82811115610d71578251825591602001919060010190610d56565b5b509050610d7f9190610e10565b5090565b608060405190810160405280600081526020016000815260200160008152602001600081525090565b60e060405190810160405280610dc0610dfc565b8152602001610dcd610dfc565b8152602001610dda610dfc565b8152602001600081526020016000815260200160008152602001600081525090565b602060405190810160405280600081525090565b610e3291905b80821115610e2e576000816000905550600101610e16565b5090565b905600a165627a7a7230582006550fedb1394829f91e2aba23dc1f2d74463c25475fccade1fec1229fa53cbe0029",
  "source": "// SPDX-License-Identifier: MIT\npragma solidity ^0.4.17;\n\ncontract SimpleStorage {\n    address public owner;\n    uint256 public farmerCount;\n    uint256 public farmerlotCount;\n    uint256 public lotCount;\n\n    // Constructor\n    function SimpleStorage() public {\n        owner = msg.sender;\n\n        farmerCount = 0;\n        lotCount = 0;\n        farmerlotCount = 0;\n    }\n\n    struct Farmer {\n        string fname;\n        string loc;\n        string crop;\n        uint256 contact;\n        uint256 quantity;\n        uint256 exprice;\n        uint256 farmerId;\n    }\n\n    mapping(uint256 => Farmer) public farmerDetails;\n\n    // Only admin can add candidate\n    function addFarmer(\n        string _fname,\n        string _loc,\n        string _crop,\n        uint256 _contact,\n        uint256 _quantity,\n        uint256 _exprice\n    ) public {\n        Farmer memory newFarmer = Farmer({\n            fname: _fname,\n            loc: _loc,\n            crop: _crop,\n            contact: _contact,\n            quantity: _quantity,\n            exprice: _exprice,\n            farmerId: farmerCount\n        });\n\n        farmerDetails[farmerCount] = newFarmer;\n        farmerCount += 1;\n    }\n\n    // get total number of candidates\n    function getFarmerNumber() public view returns (uint256) {\n        return farmerCount;\n    }\n\n    function getOwner() public view returns (address) {\n        return owner;\n    }\n\n    // Only Admin can access\n    modifier onlyAdmin() {\n        require(msg.sender == owner);\n        _;\n    }\n\n    struct Lot {\n        uint256 famerId;\n        uint256 lotno;\n        string grade;\n        uint256 mrp;\n        string testdate;\n        string expdate;\n    }\n    address public tester;\n\n    mapping(uint256 => Lot) public lotDetails;\n\n    function quality(\n        uint256 _famerId,\n        uint256 _ll,\n        string _g,\n        uint256 _p,\n        string _tt,\n        string _e\n    ) public {\n        Lot memory newLot = Lot({\n            famerId: _famerId,\n            lotno: _ll,\n            grade: _g,\n            mrp: _p,\n            testdate: _tt,\n            expdate: _e\n        });\n\n        lotDetails[lotCount] = newLot;\n        lotCount += 1;\n    }\n\n    function getLotNumber() public view returns (uint256) {\n        return lotCount;\n    }\n\n    struct FarmerLot {\n        uint256 farmerlotId;\n        uint256 farmerId;\n        uint256 lotId;\n        uint256 priceSup;\n    }\n\n    mapping(uint256 => FarmerLot) public farmerlotDetails;\n\n    function addFarmerLot(\n        uint256 _farmerId,\n        uint256 _lotId,\n        uint256 _priceSup\n    ) public {\n        FarmerLot memory newFarmer = FarmerLot({\n            farmerlotId: farmerlotCount,\n            farmerId: _farmerId,\n            lotId: _lotId,\n            priceSup: _priceSup\n        });\n\n        farmerlotDetails[farmerlotCount] = newFarmer;\n        farmerlotCount += 1;\n    }\n\n    // get total number of candidates\n    function getFarmerLotNumber() public view returns (uint256) {\n        return farmerlotCount;\n    }\n}\n",
  "sourcePath": "C:\\Users\\HP\\Hello\\contracts\\SimpleStorage.sol",
  "compiler": {
    "name": "solc",
    "version": "0.4.17+commit.bdeb9e52.Emscripten.clang"
  },
  "schemaVersion": "3.4.3",
  "updatedAt": "2021-12-19T14:29:31.911Z",
  "networkType": "ethereum",
  "devdoc": {
    "methods": {}
  },
  "userdoc": {
    "methods": {}
  }
}